S0140000636F6E645F636F6E74726F6C2E737265630C
S11300000EC01BC01AC019C018C017C016C015C036
S113001014C013C012C011C010C00FC00EC01124F0
S11300201FBECFEDCDBF20E0A0E6B0E001C01D9221
S1130030A636B207E1F76FD0AFC2E2CFCF92DF921C
S1130040EF92FF92CF93DF93379A87B1807F87B97E
S113005087B187B9399A369A349BFECF349A64B102
S113006085B1379870E0782B80E090E074D123E379
S113007033E343E550E401D220E030EC4FE754E4AD
S113008002D16B017C01379A87B1807F87B987B130
S113009087B987B1836087B9369A349BFECF349A87
S11300A084B125B1379890E0922BBC0180E090E0B8
S11300B052D123E333E343E550E4DFD120E030ECD5
S11300C04FE754E4E0D0A701960178D0C1E0D0E036
S11300D02DEC3CEC4CEC5EE3CCD1181614F0C0E0F3
S11300E0D0E0CE01DF91CF91FF90EF90DF90CF90E1
S11300F0089526B330E002C0359527958A95E2F736
S113010081E090E020FF02C080E090E00895C19A71
S11301100895C198089517BA18BA87B387BB87B3EF
S113012087BBB99AC19887B187B92FEF89E698E15F
S1130130215080409040E1F700C0000080E090E052
S1130140D8DF909365008093640082E090E0D1DF73
S1130150909363008093620071DF909361008093B9
S11301606000209164003091650021303105E9F68A
S1130170019791F48091620090916300892BA9F614
S1130180C6DF2FE789EA93E0215080409040E1F7F1
S113019000C00000BEDFC9CF80916200909163006F
S11301A0019719F6B4DF2FE789EA93E021508040E4
S11301B09040E1F700C00000ACDFB7CF5058BB2738
S11301C0AA270ED01CC10DD130F012D120F031F489
S11301D09F3F11F41EF402C10EF4E095E7FBF8C052
S11301E0E92F1ED180F3BA176207730784079507B6
S11301F018F071F49EF536C10EF4E0950B2EBA2F6B
S1130200A02D0B01B90190010C01CA01A001112418
S1130210FF27591B99F0593F50F4503E68F11A16C4
S1130220F040A22F232F342F4427585FF3CF469555
S113023037952795A795F0405395C9F77EF41F1677
S1130240BA0B620B730B840BBAF09150A1F0FF0F41
S1130250BB1F661F771F881FC2F70EC0BA0F621F2D
S1130260731F841F48F4879577956795B795F7951D
S11302709E3F08F0B3CF9395880F08F09927EE0FAF
S11302809795879508950CD0BAC0B2D040F0A9D004
S113029030F021F45F3F19F09BC05111E4C09EC0BF
S11302A0BFD098F39923C9F35523B1F3951B550B8C
S11302B0BB27AA2762177307840738F09F5F5F4F35
S11302C0220F331F441FAA1FA9F333D00E2E3AF076
S11302D0E0E830D091505040E695001CCAF729D090
S11302E0FE2F27D0660F771F881FBB1F26173707DF
S11302F04807AB07B0E809F0BB0B802DBF01FF270F
S113030093585F4F2AF09E3F510568F061C0ABC01F
S11303105F3FECF3983EDCF3869577956795B79548
S1130320F7959F5FC9F7880F911D9695879597F963
S11303300895E1E0660F771F881FBB1F62177307DC
S11303408407BA0720F0621B730B840BBA0BEE1FF1
S113035088F7E0950895E89409C097FB3EF49095DA
S11303608095709561957F4F8F4F9F4F9923A9F08A
S1130370F92F96E9BB279395F69587957795679519
S1130380B795F111F8CFFAF4BB0F11F460FF1BC05D
S11303906F5F7F4F8F4F9F4F16C0882311F096E9F0
S11303A011C0772321F09EE8872F762F05C066239E
S11303B071F096E8862F70E060E02AF09A95660F57
S11303C0771F881FDAF7880F9695879597F9089510
S11303D097F99F6780E870E060E008959FEF80ECF4
S11303E0089500240A941616170618060906089597
S11303F000240A9412161306140605060895092EFD
S11304000394000C11F4882352F0BB0F40F4BF2B6B
S113041011F460FF04C06F5F7F4F8F4F9F4F0895AB
S113042057FD9058440F551F59F05F3F71F04795A1
S1130430880F97FB991F61F09F3F79F08795089586
S1130440121613061406551FF2CF4695F1DF08C0A5
S1130450161617061806991FF1CF869571056105C2
S113046008940895E894BB2766277727CB0197F96A
S113047008956ED008F48FEF08950AD0C0CFB1DF8D
S113048028F0B6DF18F0952309F0A2CFA7CFEBCF61
S1130490C7DFA8F39923D9F35523C9F3950F50E087
S11304A0551FAA27EE27FF27BB270024089467952A
S11304B020F4E20FF31FB41F0A1E220F331F441F40
S11304C0AA1F6695A9F7779530F4F30FB41F0A1E97
S11304D0121E08F46395330F441FAA1F221F76953A
S11304E099F7879520F4B40F0A1E121E631F440F58
S11304F0AA1F221F331F8695A9F7862F712D602D01
S113050011249F5750408AF0E1F088234AF0EE0FFF
S1130510FF1FBB1F661F771F881F91505040A9F70C
S11305209E3F510570F054CF9ECF5F3FECF3983E51
S1130530DCF3869577956795B795F795E7959F5F73
S1130540C1F7FE2B880F911D9695879597F908950D
S1130550990F0008550FAA0BE0E8FEEF16161706D0
S1130560E807F907C0F012161306E407F50798F038
S1130570621B730B840B950B39F40A2661F0232B51
S1130580242B252B21F408950A2609F4A140A695CD
S10F05908FEF811D811D0895F894FFCFAA
S9030000FC
